:0404000007EF02F010
:0A040800798298ED0DF01AEF0DF067
:1010000000636C6F636B207469636B732F7365632C
:10101000203D2025640A0A006275726E2074696D95
:1010200065203D2025322E326C646D730A0A0074EF
:1010300061736B20312072756E6E696E670A007481
:1010400061736B20322072756E6E696E670A007470
:1010500061736B20332072756E6E696E670A00745F
:1010600061736B20342072756E6E696E670A00744E
:1010700061736B20352072756E6E696E670A0000B1
:101080002A50D96EDA6ADFCFF6FF100EF76E08002D
:10109000F550250AD8A44FEF08F051EF08F037EFCC
:1010A00009F02A50D96EDA6ADF2A000E516E000E5E
:1010B000506E50C056F0526853682AC007F02BC0DB
:1010C00008F0CCEC0BF007C050F008C051F051BE56
:1010D0006EEF08F06CEF08F073EF08F05680506C7C
:1010E000511ED8B0512A2A50D96EDA6ADFCFF6FFE6
:1010F000100EF76E0800F5502E0AD8A482EF08F003
:1011000084EF08F092EF08F02A50D96EDA6ADF2AED
:101110002AC007F02BC008F0CCEC0BF007C052F04F
:1011200008C053F02A50D96EDA6ADF50336E33C0EC
:10113000F6FF100EF76E0800F5CF32F0ABEF08F0B7
:10114000332AC4EF08F0690E326EC4EF08F0000EC7
:10115000326EC4EF08F032502C6E2D6A2D50000A0A
:10116000D8B4B5EF08F0A7EF08F02C50640AD8B453
:10117000A3EF08F00D0AD8B4A3EF08F0050AD8B41D
:10118000A0EF08F0A7EF08F033C0F6FF100EF76EDF
:101190000800F550640AD8B4D0EF08F0D2EF08F098
:1011A00007EF09F033C0F6FF100EF76E0800F55098
:1011B000690AD8A4DEEF08F0E0EF08F031EF09F09B
:1011C00007EF09F02B50D96EDA6ADF50DF2ADF2AE9
:1011D000D96EDA6ADECF2EF0DDCF2FF0000E2FBEF3
:1011E000FF0E306E316E1CEF09F02B50D96EDA6AAB
:1011F000040EDF26DF5CD96EDA6ADECF2EF0DECF9A
:101200002FF0DECF30F0DECF31F01CEF09F032509E
:101210002C6E2D6A2D50000AD8B411EF09F01CEF86
:1012200009F02C50690AD8B4E2EF08F0050AD8B4E6
:10123000F5EF08F01CEF09F02A50D96EDA6A33286E
:10124000DF6E28C019F029C01AF02EC01BF02FC085
:101250001CF030C01DF031C01EF04BEC09F04AEF1D
:1012600009F02A50D96EDA6ADF2A4AEF09F02A50CB
:10127000D96EDA6ADFCFF6FF100EF76E0800F55070
:10128000026E036A28C004F029C005F013EC0BF0CD
:1012900031EF09F012001EBE50EF09F053EF09F0D4
:1012A000010E54EF09F0000E256E53BE5CEF09F0FD
:1012B0005AEF09F062EF09F0000E246E010E236E62
:1012C00066EF09F052C023F053C024F050C021F063
:1012D00051C022F02550D8B470EF09F072EF09F038
:1012E00089EF09F02106D8A022062550D8A47BEF6B
:1012F00009F07DEF09F083EF09F0000E206E2B0E50
:101300001F6E87EF09F0000E206E2D0E1F6E1FC09E
:1013100025F0000E276E1F0E266E000E766ED3EFA0
:1013200009F02606D8A027062650570FD96EDA6A8C
:101330001BC001F01CC002F01DC003F01EC004F071
:101340000A0E056E000E066E000E076E000E086E89
:101350009DEC0AF001C00BF002C00CF07EEC0DF029
:101360000B50300FDF6E2306D8A024062106D8A02C
:1013700022061BC001F01CC002F01DC003F01EC0FD
:1013800004F00A0E056E000E066E000E076E000ECB
:10139000086E17EC0AF001C01BF002C01CF003C07D
:1013A0001DF004C01EF027BEDEEF09F0275008E153
:1013B0002604D8A0DEEF09F0E0EF09F0F8EF09F01D
:1013C0001B501C101D101E10D8A4E9EF09F0EBEF04
:1013D00009F091EF09F024BEF8EF09F0245006E17E
:1013E0002304D8B0F6EF09F0F8EF09F091EF09F017
:1013F0002550D8B4FEEF09F000EF0AF009EF0AF02B
:101400002606D8A027062650570FD96EDA6A25C0BF
:10141000DFFF19C011F01AC012F02650570F136EDB
:1014200021C014F022C015F01FEC0CF01200000EC9
:101430000A6E08BE20EF0AF01EEF0AF02AEF0AF04B
:10144000081E071E061E056C000E06220722082233
:10145000010E0A6E04BE31EF0AF02FEF0AF03BEFE7
:101460000AF0041E031E021E016C000E022203225B
:101470000422010E0A1A000E0B6E000E0C6E000EF6
:101480000D6E000E0E6E0550061007100810D8B431
:101490004CEF0AF04EEF0AF084EF0AF0010E096EED
:1014A00058EF0AF0D8900536063607360836092A6E
:1014B00008AE5DEF0AF05FEF0AF052EF0AF0D89045
:1014C0000B360C360D360E360550015C06500258B0
:1014D0000750035808500458D8A071EF0AF073EF72
:1014E0000AF07CEF0AF00550015E0650025A0750E0
:1014F000035A0850045A0B80D8900832073206323B
:101500000532092E5FEF0AF00A50D8B48AEF0AF0CC
:101510008CEF0AF094EF0AF00E1E0D1E0C1E0B6CE1
:10152000000E0C220D220E220BC001F00CC002F0A6
:101530000DC003F00EC004F01200000E0A6E04BECF
:10154000A6EF0AF0A4EF0AF0B0EF0AF0041E031EA3
:10155000021E016C000E022203220422010E0A6EFA
:1015600008BEB7EF0AF0B5EF0AF0BFEF0AF0081EA9
:10157000071E061E056C000E0622072208220550D3
:10158000061007100810D8B4C8EF0AF0CAEF0AF026
:10159000FAEF0AF0010E096ED4EF0AF0D890053682
:1015A000063607360836092A08AED9EF0AF0DBEF0F
:1015B0000AF0CEEF0AF00550015C065002580750C1
:1015C000035808500458D8A0E8EF0AF0EAEF0AF0F0
:1015D000F2EF0AF00550015E0650025A0750035A16
:1015E0000850045AD8900832073206320532092EC4
:1015F000DBEF0AF00A50D8B400EF0BF002EF0BF06B
:101600000AEF0BF0041E031E021E016C000E0222E4
:101610000322042201C001F002C002F003C003F063
:1016200004C004F0120004500510D8B41AEF0BF0F7
:101630001CEF0BF025EF0BF004500510D8A423EF9E
:101640000BF025EF0BF02AEF0BF002501DEC0EF023
:1016500077EF0BF020EE0AF00450D9260550DA227D
:10166000DE50DE10D8B437EF0BF039EF0BF054EF4B
:101670000BF020EE0AF00450D9260550DA2210EEC5
:1016800003F00450E1260550E222DE50E65CE6500D
:10169000800A0A6EDE50800A0A58D8B052EF0BF06A
:1016A00054EF0BF077EF0BF020EE03F00450D92647
:1016B0000550DA22DECF06F0DDCF07F004C0D9FFF7
:1016C00005C0DAFFDECF08F0DDCF09F006500824B0
:1016D000D96E07500920DA6E02C0DFFF20EE03F05A
:1016E0000450D9260550DA22DE2A000EDD2212002F
:1016F00028EC0EF0E4EC0DF0010E396E000E3B6E9E
:10170000040E3A6ED7EC0DF0000E786E000E776E78
:10171000000E556E000E546E55BE98EF0BF05550EE
:1017200009E1050E545CD8A098EF0BF09AEF0BF08E
:101730009CEF0BF0B8EF0BF05450020DF3CF43F0D9
:1017400077500A0DF350800F4324D96EDA6A02D81D
:10175000B4EF0BF00500FA6EDE50FD6EDE50FE6E4B
:10176000F850FF6EFA501200544A552A8CEF0BF0D5
:10177000774A782A78BEC6EF0BF0785009E1040E5C
:10178000775CD8A0C6EF0BF0C8EF0BF088EF0BF03A
:1017900084EF0BF007EF02F0000E0B6E000E0A6EE6
:1017A0000750D96EDA6ADFCFF6FF100EF76E080029
:1017B000F5502A0AD8A4DFEF0BF0E1EF0BF007EFAA
:1017C0000CF00750D96EDA6ADF2A0850D96EDA6A4F
:1017D000020EDF26DF5CD96EDA6ADECF0AF0DECFDA
:1017E0000BF01AEF0CF00AC001F00BC002F0000E73
:1017F000046E0A0E036EC4EC0DF0095001240A6E4B
:10180000000E02200B6E0750D96EDA6ADF2A0750ED
:10181000D96EDA6ADFCFF6FF100EF76E0800F550CA
:10182000D00F096E090E096418EF0CF01AEF0CF0D6
:10183000F3EF0BF00AC007F00BC008F0120056A03F
:1018400024EF0CF026EF0CF02EEF0CF013C00BF091
:1018500011C00CF012C00DF05EEC0DF015BE35EFAE
:101860000CF033EF0CF039EF0CF0000E156E000E9B
:10187000146E000E186E000E176E4BEF0CF0000E7B
:10188000036E200E026E11C004F012C005F013ECBE
:101890000BF0174A182A1450175C1850800A166E5D
:1018A0001550800A1658D8A058EF0CF05AEF0CF0DB
:1018B0003FEF0CF056B05FEF0CF061EF0CF069EF0A
:1018C0000CF013C00BF011C00CF012C00DF05EEC68
:1018D0000DF012004CC03FF04DC040F04EC041F042
:1018E0004FC042F04F504E104D1009E1140E4C5CA9
:1018F000D8A07DEF0CF07FEF0CF072EF0CF0000E33
:101900004C6E000E4D6E000E4E6E000E4F6E180E99
:10191000396E3F501408016E000E4054026E000EE6
:101920004154036E000E4254046EFA0E056E000E12
:10193000066E000E076E000E086EE5EC0CF001C09E
:101940003AF002C03BF003C03CF004C03DF0D7ECDD
:101950000DF0000E556E050E546E12004CC048F08E
:101960004DC049F04EC04AF04FC04BF001C003F0EB
:1019700002C004F0D89003360436D89003360436FB
:1019800003C005F004C006F0000E06BEFF0E076E91
:10199000086E48504C5C096E49504D580A6E4A50CA
:1019A0004E580B6E4B504F580C6E0550095C06504C
:1019B0000A5807500B5808500C58D8A0E2EF0CF00A
:1019C000E4EF0CF0B6EF0CF01200000E096E000E02
:1019D0000A6E000E0B6E000E0C6E01A0F2EF0CF002
:1019E000F4EF0CF0FCEF0CF00550092606500A222B
:1019F00007500B2208500C22D890053606360736C1
:101A00000836D890043203320232013201500210FB
:101A100003100410D8A40FEF0DF011EF0DF0EDEF4F
:101A20000CF009C001F00AC002F00BC003F00CC0BA
:101A300004F01200600EF66E1B0EF76E000EF86ECC
:101A400000EE80F010EE28F00900F5CFEEFFE55033
:101A5000E150FAE100EEA8F0180EEE6AE806FDE1AA
:101A600000EE44F0330EEE6AE806FDE179907992DB
:101A7000000EF86E000178EF0BF036C038F04BEF37
:101A80000DF034C028F035C029F0380E2A6E37C06A
:101A90002BF040EC08F038C0F6FF100EF76E08008F
:101AA000F5500009D8A457EF0DF059EF0DF041EFB4
:101AB0000DF0000E356E000E346E1200000E106E2A
:101AC000000E0F6E6FEF0DF00EC002F0036A0CC037
:101AD00004F00DC005F013EC0BF00F4A102A0B5068
:101AE0000F24D96EDA6ADF500E6E0E50D8A47BEF49
:101AF0000DF07DEF0DF064EF0DF012000CBE83EFE2
:101B00000DF085EF0DF08BEF0DF00BC00BF00CC05E
:101B10000CF097EF0DF00BC00DF00CC00EF00D1E89
:101B20000E1E0D4A0E2A0DC00BF00EC00CF0120056
:101B30000600F2AA9EEF0DF0A0EF0DF0AEEF0DF053
:101B4000F2A4A5EF0DF0A7EF0DF0AEEF0DF0F294BB
:101B5000010E4C26000E4D224E224F22799211008A
:101B60000E1C241CD418D418D4180E1CF81BD4181E
:101B7000D418D4180E1CE21BD418D418D418D418B6
:101B8000D418D418D418D41801500302F3CF05F098
:101B9000F4CF06F001500402F3500626025003026F
:101BA000F350062605C001F006C002F012003A0EFE
:101BB0003E6E000E346E000E356E39C036F03E0EAD
:101BC000376E3DEC0DF01200948C949EAB8EAC847D
:101BD000AC98AC8A000EB06E190EAF6E000EB86EE7
:101BE00012005F0E396ED7EC0DF0000E026E040E7F
:101BF000016EAEEC0CF012004F0E396ED7EC0DF00A
:101C0000000E026E030E016EAEEC0CF012002F0EF1
:101C1000396ED7EC0DF0000E026E010E016EAEECC7
:101C20000CF012003F0E396ED7EC0DF0000E026E74
:101C3000020E016EAEEC0CF01200016E9EA823EFB6
:101C40000EF025EF0EF01EEF0EF001C0ADFF1200FA
:0A1C5000820ED56EF28EF28A1200A9
:020000040030CA
:0E000000FF421F1EFF8381FF0FC00FE00F4065
:00000001FF
