:0404000007EF02F010
:0A0408007A8231ED0EF0B3EF0DF033
:1010000000636C6F636B207469636B732F7365632C
:10101000203D2025640A0A006275726E2074696D95
:1010200065203D2025322E326C646D730A0A0074EF
:1010300061736B20312072756E6E696E670A007481
:1010400061736B20322072756E6E696E670A007470
:1010500061736B20332072756E6E696E670A00745F
:1010600061736B20342072756E6E696E670A00744E
:1010700061736B20352072756E6E696E670A00258C
:031080006300000A
:101084002A50D96EDA6ADFCFF6FF100EF76E080029
:10109400F550250AD8A451EF08F053EF08F062EF99
:1010A40009F02A50D96EDA6ADF2A000E526E000E59
:1010B400516E51C057F0536854682AC007F02BC0D2
:1010C40008F065EC0CF007C051F008C052F052BEB5
:1010D40070EF08F06EEF08F075EF08F05780516C70
:1010E400521ED8B0522A2A50D96EDA6ADFCFF6FFE0
:1010F400100EF76E0800F5502E0AD8A484EF08F0FD
:1011040086EF08F094EF08F02A50D96EDA6ADF2AE5
:101114002AC007F02BC008F065EC0CF007C053F0B0
:1011240008C054F02A50D96EDA6ADFCFF6FF100EE9
:10113400F76E0800F550630AD8A4A3EF08F0A5EFF2
:1011440008F0BDEF08F02A50D96EDA6ADF2A2B5076
:10115400D96EDA6ADF50DF2ADF2AD96EDA6ADF5005
:10116400326E28C00BF029C00CF032C00DF0A3EC95
:101174000BF075EF09F02A50D96EDA6ADF50336E3E
:1011840033C0F6FF100EF76E0800F5CF32F0D6EF3D
:1011940008F0332AEFEF08F0690E326EEFEF08F033
:1011A400000E326EEFEF08F032502C6E2D6A2D5087
:1011B400000AD8B4E0EF08F0D2EF08F02C50640A2B
:1011C400D8B4CEEF08F00D0AD8B4CEEF08F0050A73
:1011D400D8B4CBEF08F0D2EF08F033C0F6FF100E0E
:1011E400F76E0800F550640AD8B4FBEF08F0FDEF81
:1011F40008F032EF09F033C0F6FF100EF76E080066
:10120400F550690AD8A409EF09F00BEF09F05CEF77
:1012140009F032EF09F02B50D96EDA6ADF50DF2A79
:10122400DF2AD96EDA6ADECF2EF0DDCF2FF0000E82
:101234002FBEFF0E306E316E47EF09F02B50D96E82
:10124400DA6A040EDF26DF5CD96EDA6ADECF2EF0AE
:10125400DECF2FF0DECF30F0DECF31F047EF09F0F4
:1012640032502C6E2D6A2D50000AD8B43CEF09F090
:1012740047EF09F02C50690AD8B40DEF09F0050ABC
:10128400D8B420EF09F047EF09F02A50D96EDA6A92
:101294003328DF6E28C019F029C01AF02EC01BF0C5
:1012A4002FC01CF030C01DF031C01EF076EC09F0E8
:1012B40075EF09F02A50D96EDA6ADF2A75EF09F062
:1012C4002A50D96EDA6ADFCFF6FF100EF76E0800E7
:1012D400F550026E036A28C004F029C005F03EEC04
:1012E4000BF05CEF09F012001EBE7BEF09F07EEFFD
:1012F40009F0010E7FEF09F0000E256E54BE87EF52
:1013040009F085EF09F08DEF09F0000E246E010E4F
:10131400236E91EF09F053C023F054C024F051C060
:1013240021F052C022F02550D8B49BEF09F09DEF74
:1013340009F0B4EF09F02106D8A022062550D8A45C
:10134400A6EF09F0A8EF09F0AEEF09F0000E206E49
:101354002B0E1F6EB2EF09F0000E206E2D0E1F6EC5
:101364001FC025F0000E276E1F0E266E000E776E2E
:10137400FEEF09F02606D8A027062650580FD96E8E
:10138400DA6A1BC001F01CC002F01DC003F01EC0CD
:1013940004F00A0E056E000E066E000E076E000EB7
:1013A400086EC8EC0AF001C00BF002C00CF017EC98
:1013B4000EF00B50300FDF6E2306D8A02406210652
:1013C400D8A022061BC001F01CC002F01DC003F00F
:1013D4001EC004F00A0E056E000E066E000E076EA7
:1013E400000E086E42EC0AF001C01BF002C01CF0B3
:1013F40003C01DF004C01EF027BE09EF0AF02750F9
:1014040008E12604D8A009EF0AF00BEF0AF023EF55
:101414000AF01B501C101D101E10D8A414EF0AF063
:1014240016EF0AF0BCEF09F024BE23EF0AF02450B3
:1014340006E12304D8B021EF0AF023EF0AF0BCEF51
:1014440009F02550D8B429EF0AF02BEF0AF034EF55
:101454000AF02606D8A027062650580FD96EDA6A55
:1014640025C0DFFF19C011F01AC012F02650580F22
:10147400136E21C014F022C015F0B8EC0CF0120069
:10148400000E0A6E08BE4BEF0AF049EF0AF055EF62
:101494000AF0081E071E061E056C000E062207220F
:1014A4000822010E0A6E04BE5CEF0AF05AEF0AF03D
:1014B40066EF0AF0041E031E021E016C000E0222D7
:1014C40003220422010E0A1A000E0B6E000E0C6E8B
:1014D400000E0D6E000E0E6E05500610071008105B
:1014E400D8B477EF0AF079EF0AF0AFEF0AF0010E03
:1014F400096E83EF0AF0D8900536063607360836AB
:10150400092A08AE88EF0AF08AEF0AF07DEF0AF0A4
:10151400D8900B360C360D360E360550015C06504D
:1015240002580750035808500458D8A09CEF0AF0FA
:101534009EEF0AF0A7EF0AF00550015E0650025A2A
:101544000750035A0850045A0B80D89008320732C7
:1015540006320532092E8AEF0AF00A50D8B4B5EFE4
:101564000AF0B7EF0AF0BFEF0AF00E1E0D1E0C1EB4
:101574000B6C000E0C220D220E220BC001F00CC0CD
:1015840002F00DC003F00EC004F01200000E0A6E4B
:1015940004BED1EF0AF0CFEF0AF0DBEF0AF0041E2D
:1015A400031E021E016C000E022203220422010EFD
:1015B4000A6E08BEE2EF0AF0E0EF0AF0EAEF0AF082
:1015C400081E071E061E056C000E062207220822AE
:1015D4000550061007100810D8B4F3EF0AF0F5EF21
:1015E4000AF025EF0BF0010E096EFFEF0AF0D89018
:1015F4000536063607360836092A08AE04EF0BF01E
:1016040006EF0BF0F9EF0AF00550015C06500258A2
:101614000750035808500458D8A013EF0BF015EFE7
:101624000BF01DEF0BF00550015E0650025A0750F7
:10163400035A0850045AD890083207320632053249
:10164400092E06EF0BF00A50D8B42BEF0BF02DEF58
:101654000BF035EF0BF0041E031E021E016C000E8E
:1016640002220322042201C001F002C002F003C0DE
:1016740003F004C004F0120004500510D8B445EF80
:101684000BF047EF0BF050EF0BF004500510D8A40B
:101694004EEF0BF050EF0BF055EF0BF00250B7ECA0
:1016A4000EF0A2EF0BF020EE0AF00450D9260550FC
:1016B400DA22DE50DE10D8B462EF0BF064EF0BF0E8
:1016C4007FEF0BF020EE0AF00450D9260550DA2201
:1016D40010EE03F00450E1260550E222DE50E65CF1
:1016E400E650800A0A6EDE50800A0A58D8B07DEFB0
:1016F4000BF07FEF0BF0A2EF0BF020EE03F00450A1
:10170400D9260550DA22DECF06F0DDCF07F004C07B
:10171400D9FF05C0DAFFDECF08F0DDCF09F00650AF
:101724000824D96E07500920DA6E02C0DFFF20EECC
:1017340003F00450D9260550DA22DE2A000EDD22F9
:10174400120051505210D8A4AAEF0BF0ACEF0BF0DA
:10175400B2EF0BF051C011F052C012F0B8EF0BF021
:10176400FF0E5124116EFF0E5220126E57A0BDEFD2
:101774000BF0BFEF0BF0C8EF0BF00DC002F0036AE3
:101784000BC004F00CC005F03EEC0BF012BECDEF24
:101794000BF0CFEF0BF0D1EF0BF0D5EF0BF0000E09
:1017A400126E000E116E000E106E000E0F6EE7EF3B
:1017B4000BF0000E036E200E026E0BC004F00CC082
:1017C40005F03EEC0BF00F4A102A11500F5C10503C
:1017D400800A0E6E1250800A0E58D8A0F4EF0BF057
:1017E400F6EF0BF0DBEF0BF057B0FBEF0BF0FDEF78
:1017F4000BF006EF0CF00DC002F0036A0BC004F00E
:101804000CC005F03EEC0BF01200C2EC0EF0446E7E
:101814007F0E396E44C03AF03B6A7EEC0EF0CBEC9E
:101824000EF070EC0EF0010E396E000E3B6E040EDD
:101834003A6E7EEC0EF0000E796E000E786E000E9D
:10184400566E000E556E56BE31EF0CF0565009E13F
:10185400050E555CD8A031EF0CF033EF0CF035EFEA
:101864000CF051EF0CF05550020DF3CF43F07850CB
:101874000A0DF350800F4324D96EDA6A02D84DEF73
:101884000CF00500FA6EDE50FD6EDE50FE6EF85070
:10189400FF6EFA501200554A562A25EF0CF0784A8A
:1018A400792A79BE5FEF0CF0795009E1040E785C77
:1018B400D8A05FEF0CF061EF0CF021EF0CF01DEFFE
:1018C4000CF007EF02F0000E0B6E000E0A6E0750CC
:1018D400D96EDA6ADFCFF6FF100EF76E0800F55006
:1018E4002A0AD8A478EF0CF07AEF0CF0A0EF0CF0F1
:1018F4000750D96EDA6ADF2A0850D96EDA6A020E06
:10190400DF26DF5CD96EDA6ADECF0AF0DECF0BF0B9
:10191400B3EF0CF00AC001F00BC002F0000E046E2D
:101924000A0E036E5DEC0EF0095001240A6E000EDF
:1019340002200B6E0750D96EDA6ADF2A0750D96E7F
:10194400DA6ADFCFF6FF100EF76E0800F550D00FFD
:10195400096E090E0964B1EF0CF0B3EF0CF08CEFD3
:101964000CF00AC007F00BC008F0120057A0BDEF3E
:101974000CF0BFEF0CF0C7EF0CF013C00BF011C06C
:101984000CF012C00DF0F7EC0DF015BECEEF0CF01C
:10199400CCEF0CF0D2EF0CF0000E156E000E146EAE
:1019A400000E186E000E176EE4EF0CF0000E036EBE
:1019B400200E026E11C004F012C005F03EEC0BF0D4
:1019C400174A182A1450175C1850800A166E1550BE
:1019D400800A1658D8A0F1EF0CF0F3EF0CF0D8EF12
:1019E4000CF057B0F8EF0CF0FAEF0CF002EF0DF03A
:1019F40013C00BF011C00CF012C00DF0F7EC0DF099
:101A040012004DC03FF04EC040F04FC041F050C0F6
:101A140042F050504F104E1009E1140E4D5CD8A006
:101A240016EF0DF018EF0DF00BEF0DF0000E4D6EEC
:101A3400000E4E6E000E4F6E000E506E180E396E74
:101A44003F501408016E000E4054026E000E4154C3
:101A5400036E000E4254046EFA0E056E000E066EFE
:101A6400000E076E000E086E7EEC0DF001C03AF019
:101A740002C03BF003C03CF004C03DF07EEC0EF02D
:101A8400000E566E050E556E12004DC049F04EC044
:101A94004AF04FC04BF050C04CF001C003F002C0FC
:101AA40004F0D89003360436D8900336043603C0C5
:101AB40005F004C006F0000E06BEFF0E076E086EA9
:101AC40049504D5C096E4A504E580A6E4B504F585F
:101AD4000B6E4C5050580C6E0550095C06500A5859
:101AE40007500B5808500C58D8A07BEF0DF07DEF31
:101AF4000DF04FEF0DF01200000E096E000E0A6E8D
:101B0400000E0B6E000E0C6E01A08BEF0DF08DEF2E
:101B14000DF095EF0DF00550092606500A220750E6
:101B24000B2208500C22D8900536063607360836A4
:101B3400D8900432033202320132015002100310F1
:101B44000410D8A4A8EF0DF0AAEF0DF086EF0DF065
:101B540009C001F00AC002F00BC003F00CC004F08D
:101B64001200920EF66E1C0EF76E000EF86E00EE6A
:101B740080F010EE28F00900F5CFEEFFE550E150BB
:101B8400FAE100EEA8F0180EEE6AE806FDE100EEB8
:101B940045F0330EEE6AE806FDE17A907A92000E83
:101BA400F86E000107EF0CF036C038F0E4EF0DF0EA
:101BB40034C028F035C029F0380E2A6E37C02BF017
:101BC40042EC08F038C0F6FF100EF76E0800F5502E
:101BD4000009D8A4F0EF0DF0F2EF0DF0DAEF0DF0FC
:101BE400000E356E000E346E1200000E106E000EE4
:101BF4000F6E08EF0EF00EC002F0036A0CC004F082
:101C04000DC005F03EEC0BF00F4A102A0B500F24C8
:101C1400D96EDA6ADF500E6E0E50D8A414EF0EF0AF
:101C240016EF0EF0FDEF0DF012000CBE1CEF0EF0DF
:101C34001EEF0EF024EF0EF00BC00BF00CC00CF0F6
:101C440030EF0EF00BC00DF00CC00EF00D1E0E1E8A
:101C54000D4A0E2A0DC00BF00EC00CF01200060047
:101C6400F2AA37EF0EF039EF0EF047EF0EF0F2A4C0
:101C74003EEF0EF040EF0EF047EF0EF0F294010E3F
:101C84004D26000E4E224F2250227A921100421D00
:101C9400581D061A061A061A421D2C1D061A061A83
:101CA400061A421D161D061A061A061A061A061ADE
:101CB400061A061A061A01500302F3CF05F0F4CFF0
:101CC40006F001500402F350062602500302F350BA
:101CD400062605C001F006C002F01200948C949E02
:101CE400AB8EAB88AC84AC98AC8A000EB06E190E87
:101CF400AF6E000EB86E12003A0E3E6E000E346ED9
:101D0400000E356E39C036F03E0E376ED6EC0DF04F
:101D140012005F0E396E7EEC0EF0000E026E040EA1
:101D2400016E47EC0DF012004F0E396E7EEC0EF092
:101D3400000E026E030E016E47EC0DF012002F0E22
:101D4400396E7EEC0EF0000E026E010E016E47EC51
:101D54000DF012003F0E396E7EEC0EF0000E026E96
:101D6400020E016E47EC0DF01200016E9EA8BDEF4D
:101D74000EF0BFEF0EF0B8EF0EF001C0ADFF120091
:101D84009EAAC7EF0EF0C9EF0EF0C2EF0EF0AE50F0
:0C1D94001200820ED56EF28EF28A120050
:020000040030CA
:0E000000FF421F1EFF8381FF0FC00FE00F4065
:00000001FF
