:0404000057EF02F0C0
:060408005C824DED0AF0DC
:100418005C80D8CF46F0E8CF47F0E0CF48F0E1CF96
:1004280049F0E2CF4AF0D9CF4BF0DACF4CF0F6CF13
:100438004DF0F7CF4EF0F8CF4FF0F5CF50F09EAA21
:1004480028EF02F02AEF02F03FEF02F09DAA2FEF0B
:1004580002F031EF02F03FEF02F09E9AAECF5BF070
:10046800000E286E010E276E040E426E5BC043F02C
:10047800446A0FEC0BF050C0F5FF4FC0F8FF4EC0B8
:10048800F7FF4DC0F6FF4CC0DAFF4BC0D9FF4AC09A
:10049800E2FF49C0E1FF48C0E0FF47C0E8FF46C0AF
:0A04A800D8FF5C901000B7EF0AF0D7
:10100000000A0A002563000032EC0BF0D3EC0AF072
:101010003CEC0BF039EC0BF0000E2C6E000E2B6E3E
:10102000010E586EE5EC0AF029C090F02AC091F04C
:1010300000019051295C8E6F91512A588F6F8FBF9C
:101040002AEF08F08F5108E18E05D8A02AEF08F0AA
:101050002CEF08F014EF08F077EF08F02750281075
:10106000D8A435EF08F037EF08F03DEF08F0000E98
:101070002C6E000E2B6E14EF08F025502610D8A40D
:1010800044EF08F046EF08F055EF08F02704281069
:10109000D8A44DEF08F04FEF08F055EF08F0000E20
:1010A0002C6E010E2B6E14EF08F059505A10D8A474
:1010B0005CEF08F05EEF08F091EF08F027042810CD
:1010C000D8A465EF08F067EF08F091EF08F0000E84
:1010D0002C6E020E2B6E14EF08F0F3EC0AF025ECE8
:1010E0000AF037EF08F001EC0BF06FEF08F02BC0BF
:1010F0008EF02CC08FF08F51000AD8B482EF08F028
:1011000014EF08F08E51000AD8B42EEF08F0010A4F
:10111000D8B46DEF08F0030AD8B473EF08F014EFF9
:1011200008F014EF08F057EF02F054505510D8B4FF
:101130009CEF08F09EEF08F0A7EF08F05450551010
:10114000D8A4A5EF08F0A7EF08F0ACEF08F05250D4
:101150001CEC0BF0FBEF08F020EE0AF05450D926FF
:101160005550DA22DE50DE10D8B4B9EF08F0BBEFEC
:1011700008F0D7EF08F020EE0AF05450D926555069
:10118000DA2210EE03F05450E1265550E222DE50F0
:10119000E65CE650800A0001846FDE50800A8459C4
:1011A000D8B0D5EF08F0D7EF08F0FBEF08F020EE4D
:1011B00003F05450D9265550DA22DECF80F0DDCF2F
:1011C00081F054C0D9FF55C0DAFFDECF82F0DDCF09
:1011D00083F0000180518225D96E81518321DA6E1E
:1011E00052C0DFFF20EE03F05450D9265550DA22CA
:1011F000DE2A000EDD22120031503210D8B403EF87
:1012000009F005EF09F00EEF09F031503210D8A4C3
:101210000CEF09F00EEF09F013EF09F02F5027EC57
:101220000BF060EF09F020EE0AF03150D926325071
:10123000DA22DE50DE10D8B420EF09F022EF09F0F8
:101240003DEF09F020EE0AF03150D9263250DA2273
:1012500010EE03F03150E1263250E222DE50E65C1F
:10126000E650800A376EDE50800A3758D8B03BEF20
:1012700009F03DEF09F060EF09F020EE03F0315086
:10128000D9263250DA22DECF33F0DDCF34F031C050
:10129000D9FF32C0DAFFDECF35F0DDCF36F0335084
:1012A0003524D96E34503620DA6E2FC0DFFF20EEA1
:1012B00003F03150D9263250DA22DE2A000EDD2228
:1012C000120000018751D96EDA6ADFCFF6FF100EE7
:1012D000F76E0800F550250AD8A471EF09F073EFF6
:1012E00009F0B0EF09F08751D96EDA6ADF2A000EF3
:1012F000226E000E216E21C02DF0236824688751D4
:10130000D96EDA6ADFCFF6FF100EF76E0800F550DF
:10131000630AD8A48EEF09F090EF09F0A9EF09F065
:101320008751D96EDA6ADF2A8851D96EDA6ADF50BE
:10133000DF2ADF2AD96EDA6ADF50566E56C052F0C5
:10134000536A85C054F086C055F095EC08F0C3EFA1
:1013500009F000018751D96EDA6ADF2AC3EF09F07C
:101360008751D96EDA6ADFCFF6FF100EF76E0800EC
:10137000F550526E536A85C054F086C055F095EC16
:1013800008F0A9EF09F012003A50D96EDA6ADFCFFF
:10139000F6FF100EF76E0800F550250AD8A4D3EF1B
:1013A00009F0D5EF09F011EF0AF03A50D96EDA6A78
:1013B000DF2A000E226E000E216E21C02DF0236860
:1013C00024683A50D96EDA6ADFCFF6FF100EF76E56
:1013D0000800F550630AD8A4F0EF09F0F2EF09F025
:1013E0000BEF0AF03A50D96EDA6ADF2A3B50D96E19
:1013F000DA6ADF50DF2ADF2AD96EDA6ADF503C6E04
:101400003CC02FF0306A38C031F039C032F0FCEC0B
:1014100008F024EF0AF03A50D96EDA6ADF2A24EF96
:101420000AF03A50D96EDA6ADFCFF6FF100EF76E87
:101430000800F5502F6E306A38C031F039C032F0F4
:10144000FCEC08F00BEF0AF0120029C053F02AC0A0
:1014500054F05BC055F038EF0AF05B505518D8B423
:1014600034EF0AF036EF0AF038EF0AF04CEF0AF0EA
:101470005350295C516E54502A58526E52BE4AEF56
:101480000AF0525009E1320E515CD8A04AEF0AF03E
:101490004CEF0AF02DEF0AF0120006009DA253EF68
:1014A0000AF055EF0AF05FEF0AF09EA25AEF0AF039
:1014B0005CEF0AF05FEF0AF09E92294A2A2A2ABEC0
:1014C0006BEF0AF0110E295C270E2A58D8A06BEF9B
:1014D0000AF06DEF0AF071EF0AF0000E2A6E000EAE
:1014E000296E5C9211008BC057F082EF0AF089C020
:1014F00085F08AC086F0570E0001876F8CC088F097
:1015000061EC09F057C0F6FF100EF76E0800F550B9
:101510000009D8A48EEF0AF090EF0AF077EF0AF0F6
:10152000000E00018A6F000E896F12003FC041F06B
:10153000A4EF0AF03DC038F03EC039F0410E3A6EDB
:1015400040C03BF0C4EC09F041C0F6FF100EF76E4E
:101550000800F5500009D8A4B0EF0AF0B2EF0AF085
:101560009AEF0AF0000E3E6E000E3D6E12007E0EE7
:10157000F66E160EF76E000EF86E0900F5CF59F0F4
:101580000900F5CF5AF00900F5CF5BF000EE01F04D
:101590002D0EEE6AE806FDE15C905C92000EF86E9E
:1015A000000104EF08F0948C948EAB8EB00EAB6EFD
:1015B000AC84AC98AC8A000EB06E190EAF6E000E03
:1015C000B86EF28C9D8A9F9A1200590E00018D6FA1
:1015D000000E896F000E8A6F58C08BF08D0E8C6FD5
:1015E00073EC0AF012008C84000E266E010E256E3C
:1015F000000E5A6E000E596E000E286E000E276EF9
:1016000012008C94000E266E000E256E000E5A6E8F
:10161000010E596E000E286E000E276E1200430E4A
:10162000456E000E3D6E000E3E6E42C03FF0450E10
:10163000406E96EC0AF01200516E9EA822EF0BF05D
:1016400024EF0BF01DEF0BF051C0ADFF12002E6E1A
:101650009EA82DEF0BF02FEF0BF028EF0BF02EC014
:10166000ADFF12007F0ECA6E9D824E0ECB6E9F8222
:10167000120095948C941200D08EF28E120001000C
:011680003138
:020000040030CA
:0E000000FF421F1EFF8381FF0FC00FE00F4065
:00000001FF
